{
	"contractName": "PoolCoin",
	"abi": [
		{
			"inputs": [],
			"payable": false,
			"stateMutability": "nonpayable",
			"type": "constructor"
		},
		{
			"anonymous": false,
			"inputs": [
				{
					"indexed": true,
					"name": "_from",
					"type": "address"
				},
				{
					"indexed": true,
					"name": "_to",
					"type": "address"
				},
				{
					"indexed": false,
					"name": "_value",
					"type": "uint256"
				}
			],
			"name": "Transfer",
			"type": "event"
		},
		{
			"constant": false,
			"inputs": [
				{
					"name": "receiver",
					"type": "address"
				},
				{
					"name": "amount",
					"type": "uint256"
				}
			],
			"name": "sendCoin",
			"outputs": [
				{
					"name": "sufficient",
					"type": "bool"
				}
			],
			"payable": false,
			"stateMutability": "nonpayable",
			"type": "function"
		},
		{
			"constant": true,
			"inputs": [
				{
					"name": "amount",
					"type": "uint256"
				},
				{
					"name": "conversionRate",
					"type": "uint256"
				}
			],
			"name": "convert",
			"outputs": [
				{
					"name": "convertedAmount",
					"type": "uint256"
				}
			],
			"payable": false,
			"stateMutability": "pure",
			"type": "function"
		},
		{
			"constant": true,
			"inputs": [
				{
					"name": "addr",
					"type": "address"
				}
			],
			"name": "getBalanceInEth",
			"outputs": [
				{
					"name": "",
					"type": "uint256"
				}
			],
			"payable": false,
			"stateMutability": "view",
			"type": "function"
		},
		{
			"constant": true,
			"inputs": [
				{
					"name": "addr",
					"type": "address"
				}
			],
			"name": "getBalance",
			"outputs": [
				{
					"name": "",
					"type": "uint256"
				}
			],
			"payable": false,
			"stateMutability": "view",
			"type": "function"
		}
	],
	"bytecode": "0x608060405234801561001057600080fd5b506127106000803273ffffffffffffffffffffffffffffffffffffffff1673ffffffffffffffffffffffffffffffffffffffff168152602001908152602001600020819055506103bb806100656000396000f300608060405260043610610062576000357c0100000000000000000000000000000000000000000000000000000000900463ffffffff1680637bd703e81461006757806390b98a11146100be57806396e4ee3d14610123578063f8b2cb4f1461016e575b600080fd5b34801561007357600080fd5b506100a8600480360381019080803573ffffffffffffffffffffffffffffffffffffffff1690602001909291905050506101c5565b6040518082815260200191505060405180910390f35b3480156100ca57600080fd5b50610109600480360381019080803573ffffffffffffffffffffffffffffffffffffffff169060200190929190803590602001909291905050506101e1565b604051808215151515815260200191505060405180910390f35b34801561012f57600080fd5b50610158600480360381019080803590602001909291908035906020019092919050505061033a565b6040518082815260200191505060405180910390f35b34801561017a57600080fd5b506101af600480360381019080803573ffffffffffffffffffffffffffffffffffffffff169060200190929190505050610347565b6040518082815260200191505060405180910390f35b60006101da6101d383610347565b600261033a565b9050919050565b6000816000803373ffffffffffffffffffffffffffffffffffffffff1673ffffffffffffffffffffffffffffffffffffffff1681526020019081526020016000205410156102325760009050610334565b816000803373ffffffffffffffffffffffffffffffffffffffff1673ffffffffffffffffffffffffffffffffffffffff16815260200190815260200160002060008282540392505081905550816000808573ffffffffffffffffffffffffffffffffffffffff1673ffffffffffffffffffffffffffffffffffffffff168152602001908152602001600020600082825401925050819055508273ffffffffffffffffffffffffffffffffffffffff163373ffffffffffffffffffffffffffffffffffffffff167fddf252ad1be2c89b69c2b068fc378daa952ba7f163c4a11628f55a4df523b3ef846040518082815260200191505060405180910390a3600190505b92915050565b6000818302905092915050565b60008060008373ffffffffffffffffffffffffffffffffffffffff1673ffffffffffffffffffffffffffffffffffffffff1681526020019081526020016000205490509190505600a165627a7a723058200ef826ca1e01d28ceeb6c04a72d3292c176cf999b41aac6c0667e6611769d21b0029",
	"source": "\npragma solidity ^0.4.18;\n\n\ncontract PoolCoin {\n\tmapping (address => uint) balances;\n\n\tevent Transfer(address indexed _from, address indexed _to, uint256 _value);\n\n\tconstructor() public {\n\t\tbalances[tx.origin] = 10000;\n\t}\n\n\tfunction sendCoin(address receiver, uint amount) public returns(bool sufficient) {\n\t\tif (balances[msg.sender] < amount) return false;\n\t\tbalances[msg.sender] -= amount;\n\t\tbalances[receiver] += amount;\n\t\temit Transfer(msg.sender, receiver, amount);\n\t\treturn true;\n\t}\n\tfunction convert(uint amount,uint conversionRate) public pure returns (uint convertedAmount)\n\t{\n\t\treturn amount * conversionRate;\n\t}\n\n\tfunction getBalanceInEth(address addr) public view returns(uint){\n\t\treturn convert(getBalance(addr),2);\n\t}\n\n\tfunction getBalance(address addr) public view returns(uint) {\n\t\treturn balances[addr];\n\t}\n}\n",
	"sourcePath": "/Users/vigneshstreamoid/truffle/voting/contracts/PoolCoin.sol",
	"compiler": {
		"name": "solc",
		"version": "0.4.24+commit.e67f0147.Emscripten.clang"
	},
	"schemaVersion": "2.0.1",
	"updatedAt": "2018-10-14T00:33:09.601Z"
}